{
  "contractName": "DrugPackage",
  "abi": [
    {
      "constant": true,
      "inputs": [],
      "name": "name",
      "outputs": [
        {
          "name": "",
          "type": "string"
        }
      ],
      "payable": false,
      "stateMutability": "view",
      "type": "function",
      "signature": "0x06fdde03"
    },
    {
      "constant": true,
      "inputs": [],
      "name": "orderCount",
      "outputs": [
        {
          "name": "",
          "type": "uint256"
        }
      ],
      "payable": false,
      "stateMutability": "view",
      "type": "function",
      "signature": "0x2453ffa8"
    },
    {
      "constant": true,
      "inputs": [
        {
          "name": "",
          "type": "uint256"
        }
      ],
      "name": "orders",
      "outputs": [
        {
          "name": "id",
          "type": "uint256"
        },
        {
          "name": "content",
          "type": "string"
        },
        {
          "name": "quantity",
          "type": "string"
        },
        {
          "name": "expiryDate",
          "type": "string"
        },
        {
          "name": "temperature",
          "type": "string"
        },
        {
          "name": "status",
          "type": "string"
        },
        {
          "name": "client",
          "type": "address"
        }
      ],
      "payable": false,
      "stateMutability": "view",
      "type": "function",
      "signature": "0xa85c38ef"
    },
    {
      "inputs": [],
      "payable": false,
      "stateMutability": "nonpayable",
      "type": "constructor",
      "signature": "constructor"
    },
    {
      "anonymous": false,
      "inputs": [
        {
          "indexed": false,
          "name": "id",
          "type": "uint256"
        },
        {
          "indexed": false,
          "name": "content",
          "type": "string"
        },
        {
          "indexed": false,
          "name": "quantity",
          "type": "string"
        },
        {
          "indexed": false,
          "name": "expiryDate",
          "type": "string"
        },
        {
          "indexed": false,
          "name": "temperature",
          "type": "string"
        },
        {
          "indexed": false,
          "name": "status",
          "type": "string"
        },
        {
          "indexed": false,
          "name": "client",
          "type": "address"
        }
      ],
      "name": "OrderCreated",
      "type": "event",
      "signature": "0xc2a2a0f02b8158717c385933999abd6426bca4b7ce851e848520235924aa4da5"
    },
    {
      "anonymous": false,
      "inputs": [
        {
          "indexed": false,
          "name": "id",
          "type": "uint256"
        },
        {
          "indexed": false,
          "name": "status",
          "type": "string"
        },
        {
          "indexed": false,
          "name": "client",
          "type": "address"
        }
      ],
      "name": "OrderDeployed",
      "type": "event",
      "signature": "0xc46a56c5ecd5c69cda74d4b22bd899e912ea7bff5256e374fc8a671b40a0e92f"
    },
    {
      "anonymous": false,
      "inputs": [
        {
          "indexed": false,
          "name": "id",
          "type": "uint256"
        },
        {
          "indexed": false,
          "name": "status",
          "type": "string"
        },
        {
          "indexed": false,
          "name": "client",
          "type": "address"
        }
      ],
      "name": "OrderDelivered",
      "type": "event",
      "signature": "0xd06044fdf568f8a2b9ba8307385cff254fcc1ed152e196bce855aa583392713a"
    },
    {
      "constant": false,
      "inputs": [
        {
          "name": "_content",
          "type": "string"
        },
        {
          "name": "_quantity",
          "type": "string"
        },
        {
          "name": "_expiryDate",
          "type": "string"
        },
        {
          "name": "_temperature",
          "type": "string"
        },
        {
          "name": "_status",
          "type": "string"
        }
      ],
      "name": "createOrder",
      "outputs": [],
      "payable": false,
      "stateMutability": "nonpayable",
      "type": "function",
      "signature": "0x75cfa198"
    },
    {
      "constant": false,
      "inputs": [
        {
          "name": "_id",
          "type": "uint256"
        }
      ],
      "name": "deployOrder",
      "outputs": [],
      "payable": false,
      "stateMutability": "nonpayable",
      "type": "function",
      "signature": "0xb3da8ad1"
    },
    {
      "constant": false,
      "inputs": [
        {
          "name": "_id",
          "type": "uint256"
        }
      ],
      "name": "deliverOrder",
      "outputs": [],
      "payable": false,
      "stateMutability": "nonpayable",
      "type": "function",
      "signature": "0xddff5e7d"
    }
  ],
  "bytecode": "0x608060405260006001553480156200001657600080fd5b506040805190810160405280601481526020017f43617073756c652044727567205061636b61676500000000000000000000000081525060009080519060200190620000649291906200006b565b506200011a565b828054600181600116156101000203166002900490600052602060002090601f016020900481019282601f10620000ae57805160ff1916838001178555620000df565b82800160010185558215620000df579182015b82811115620000de578251825591602001919060010190620000c1565b5b509050620000ee9190620000f2565b5090565b6200011791905b8082111562000113576000816000905550600101620000f9565b5090565b90565b611c76806200012a6000396000f3fe608060405260043610610078576000357c0100000000000000000000000000000000000000000000000000000000900463ffffffff16806306fdde031461007d5780632453ffa81461010d57806375cfa19814610138578063a85c38ef1461045c578063b3da8ad1146106fa578063ddff5e7d14610735575b600080fd5b34801561008957600080fd5b50610092610770565b6040518080602001828103825283818151815260200191508051906020019080838360005b838110156100d25780820151818401526020810190506100b7565b50505050905090810190601f1680156100ff5780820380516001836020036101000a031916815260200191505b509250505060405180910390f35b34801561011957600080fd5b5061012261080e565b6040518082815260200191505060405180910390f35b34801561014457600080fd5b5061045a600480360360a081101561015b57600080fd5b810190808035906020019064010000000081111561017857600080fd5b82018360208201111561018a57600080fd5b803590602001918460018302840111640100000000831117156101ac57600080fd5b91908080601f016020809104026020016040519081016040528093929190818152602001838380828437600081840152601f19601f8201169050808301925050505050505091929192908035906020019064010000000081111561020f57600080fd5b82018360208201111561022157600080fd5b8035906020019184600183028401116401000000008311171561024357600080fd5b91908080601f016020809104026020016040519081016040528093929190818152602001838380828437600081840152601f19601f820116905080830192505050505050509192919290803590602001906401000000008111156102a657600080fd5b8201836020820111156102b857600080fd5b803590602001918460018302840111640100000000831117156102da57600080fd5b91908080601f016020809104026020016040519081016040528093929190818152602001838380828437600081840152601f19601f8201169050808301925050505050505091929192908035906020019064010000000081111561033d57600080fd5b82018360208201111561034f57600080fd5b8035906020019184600183028401116401000000008311171561037157600080fd5b91908080601f016020809104026020016040519081016040528093929190818152602001838380828437600081840152601f19601f820116905080830192505050505050509192919290803590602001906401000000008111156103d457600080fd5b8201836020820111156103e657600080fd5b8035906020019184600183028401116401000000008311171561040857600080fd5b91908080601f016020809104026020016040519081016040528093929190818152602001838380828437600081840152601f19601f820116905080830192505050505050509192919290505050610814565b005b34801561046857600080fd5b506104956004803603602081101561047f57600080fd5b8101908080359060200190929190505050610c11565b6040518088815260200180602001806020018060200180602001806020018773ffffffffffffffffffffffffffffffffffffffff1673ffffffffffffffffffffffffffffffffffffffff16815260200186810386528c818151815260200191508051906020019080838360005b8381101561051d578082015181840152602081019050610502565b50505050905090810190601f16801561054a5780820380516001836020036101000a031916815260200191505b5086810385528b818151815260200191508051906020019080838360005b83811015610583578082015181840152602081019050610568565b50505050905090810190601f1680156105b05780820380516001836020036101000a031916815260200191505b5086810384528a818151815260200191508051906020019080838360005b838110156105e95780820151818401526020810190506105ce565b50505050905090810190601f1680156106165780820380516001836020036101000a031916815260200191505b50868103835289818151815260200191508051906020019080838360005b8381101561064f578082015181840152602081019050610634565b50505050905090810190601f16801561067c5780820380516001836020036101000a031916815260200191505b50868103825288818151815260200191508051906020019080838360005b838110156106b557808201518184015260208101905061069a565b50505050905090810190601f1680156106e25780820380516001836020036101000a031916815260200191505b509c5050505050505050505050505060405180910390f35b34801561070657600080fd5b506107336004803603602081101561071d57600080fd5b8101908080359060200190929190505050610f6b565b005b34801561074157600080fd5b5061076e6004803603602081101561075857600080fd5b810190808035906020019092919050505061155e565b005b60008054600181600116156101000203166002900480601f0160208091040260200160405190810160405280929190818152602001828054600181600116156101000203166002900480156108065780601f106107db57610100808354040283529160200191610806565b820191906000526020600020905b8154815290600101906020018083116107e957829003601f168201915b505050505081565b60015481565b6000855111151561082457600080fd5b60016000815480929190600101919050555060e06040519081016040528060015481526020018681526020018581526020018481526020018381526020018281526020013373ffffffffffffffffffffffffffffffffffffffff168152506002600060015481526020019081526020016000206000820151816000015560208201518160010190805190602001906108bd929190611b51565b5060408201518160020190805190602001906108da929190611b51565b5060608201518160030190805190602001906108f7929190611b51565b506080820151816004019080519060200190610914929190611b51565b5060a0820151816005019080519060200190610931929190611b51565b5060c08201518160060160006101000a81548173ffffffffffffffffffffffffffffffffffffffff021916908373ffffffffffffffffffffffffffffffffffffffff1602179055509050507fc2a2a0f02b8158717c385933999abd6426bca4b7ce851e848520235924aa4da56001548686868686336040518088815260200180602001806020018060200180602001806020018773ffffffffffffffffffffffffffffffffffffffff1673ffffffffffffffffffffffffffffffffffffffff16815260200186810386528c818151815260200191508051906020019080838360005b83811015610a2e578082015181840152602081019050610a13565b50505050905090810190601f168015610a5b5780820380516001836020036101000a031916815260200191505b5086810385528b818151815260200191508051906020019080838360005b83811015610a94578082015181840152602081019050610a79565b50505050905090810190601f168015610ac15780820380516001836020036101000a031916815260200191505b5086810384528a818151815260200191508051906020019080838360005b83811015610afa578082015181840152602081019050610adf565b50505050905090810190601f168015610b275780820380516001836020036101000a031916815260200191505b50868103835289818151815260200191508051906020019080838360005b83811015610b60578082015181840152602081019050610b45565b50505050905090810190601f168015610b8d5780820380516001836020036101000a031916815260200191505b50868103825288818151815260200191508051906020019080838360005b83811015610bc6578082015181840152602081019050610bab565b50505050905090810190601f168015610bf35780820380516001836020036101000a031916815260200191505b509c5050505050505050505050505060405180910390a15050505050565b6002602052806000526040600020600091509050806000015490806001018054600181600116156101000203166002900480601f016020809104026020016040519081016040528092919081815260200182805460018160011615610100020316600290048015610cc35780601f10610c9857610100808354040283529160200191610cc3565b820191906000526020600020905b815481529060010190602001808311610ca657829003601f168201915b505050505090806002018054600181600116156101000203166002900480601f016020809104026020016040519081016040528092919081815260200182805460018160011615610100020316600290048015610d615780601f10610d3657610100808354040283529160200191610d61565b820191906000526020600020905b815481529060010190602001808311610d4457829003601f168201915b505050505090806003018054600181600116156101000203166002900480601f016020809104026020016040519081016040528092919081815260200182805460018160011615610100020316600290048015610dff5780601f10610dd457610100808354040283529160200191610dff565b820191906000526020600020905b815481529060010190602001808311610de257829003601f168201915b505050505090806004018054600181600116156101000203166002900480601f016020809104026020016040519081016040528092919081815260200182805460018160011615610100020316600290048015610e9d5780601f10610e7257610100808354040283529160200191610e9d565b820191906000526020600020905b815481529060010190602001808311610e8057829003601f168201915b505050505090806005018054600181600116156101000203166002900480601f016020809104026020016040519081016040528092919081815260200182805460018160011615610100020316600290048015610f3b5780601f10610f1057610100808354040283529160200191610f3b565b820191906000526020600020905b815481529060010190602001808311610f1e57829003601f168201915b5050505050908060060160009054906101000a900473ffffffffffffffffffffffffffffffffffffffff16905087565b600081118015610f7d57506001548111155b1515610f8857600080fd5b610f90611bd1565b6002600083815260200190815260200160002060e0604051908101604052908160008201548152602001600182018054600181600116156101000203166002900480601f0160208091040260200160405190810160405280929190818152602001828054600181600116156101000203166002900480156110525780601f1061102757610100808354040283529160200191611052565b820191906000526020600020905b81548152906001019060200180831161103557829003601f168201915b50505050508152602001600282018054600181600116156101000203166002900480601f0160208091040260200160405190810160405280929190818152602001828054600181600116156101000203166002900480156110f45780601f106110c9576101008083540402835291602001916110f4565b820191906000526020600020905b8154815290600101906020018083116110d757829003601f168201915b50505050508152602001600382018054600181600116156101000203166002900480601f0160208091040260200160405190810160405280929190818152602001828054600181600116156101000203166002900480156111965780601f1061116b57610100808354040283529160200191611196565b820191906000526020600020905b81548152906001019060200180831161117957829003601f168201915b50505050508152602001600482018054600181600116156101000203166002900480601f0160208091040260200160405190810160405280929190818152602001828054600181600116156101000203166002900480156112385780601f1061120d57610100808354040283529160200191611238565b820191906000526020600020905b81548152906001019060200180831161121b57829003601f168201915b50505050508152602001600582018054600181600116156101000203166002900480601f0160208091040260200160405190810160405280929190818152602001828054600181600116156101000203166002900480156112da5780601f106112af576101008083540402835291602001916112da565b820191906000526020600020905b8154815290600101906020018083116112bd57829003601f168201915b505050505081526020016006820160009054906101000a900473ffffffffffffffffffffffffffffffffffffffff1673ffffffffffffffffffffffffffffffffffffffff1673ffffffffffffffffffffffffffffffffffffffff1681525050905060008160c0015190506040805190810160405280600881526020017f6465706c6f7965640000000000000000000000000000000000000000000000008152508260a0018190525081600260008581526020019081526020016000206000820151816000015560208201518160010190805190602001906113bc929190611b51565b5060408201518160020190805190602001906113d9929190611b51565b5060608201518160030190805190602001906113f6929190611b51565b506080820151816004019080519060200190611413929190611b51565b5060a0820151816005019080519060200190611430929190611b51565b5060c08201518160060160006101000a81548173ffffffffffffffffffffffffffffffffffffffff021916908373ffffffffffffffffffffffffffffffffffffffff1602179055509050507fc46a56c5ecd5c69cda74d4b22bd899e912ea7bff5256e374fc8a671b40a0e92f6001548360a001518360405180848152602001806020018373ffffffffffffffffffffffffffffffffffffffff1673ffffffffffffffffffffffffffffffffffffffff168152602001828103825284818151815260200191508051906020019080838360005b8381101561151d578082015181840152602081019050611502565b50505050905090810190601f16801561154a5780820380516001836020036101000a031916815260200191505b5094505050505060405180910390a1505050565b60008111801561157057506001548111155b151561157b57600080fd5b611583611bd1565b6002600083815260200190815260200160002060e0604051908101604052908160008201548152602001600182018054600181600116156101000203166002900480601f0160208091040260200160405190810160405280929190818152602001828054600181600116156101000203166002900480156116455780601f1061161a57610100808354040283529160200191611645565b820191906000526020600020905b81548152906001019060200180831161162857829003601f168201915b50505050508152602001600282018054600181600116156101000203166002900480601f0160208091040260200160405190810160405280929190818152602001828054600181600116156101000203166002900480156116e75780601f106116bc576101008083540402835291602001916116e7565b820191906000526020600020905b8154815290600101906020018083116116ca57829003601f168201915b50505050508152602001600382018054600181600116156101000203166002900480601f0160208091040260200160405190810160405280929190818152602001828054600181600116156101000203166002900480156117895780601f1061175e57610100808354040283529160200191611789565b820191906000526020600020905b81548152906001019060200180831161176c57829003601f168201915b50505050508152602001600482018054600181600116156101000203166002900480601f01602080910402602001604051908101604052809291908181526020018280546001816001161561010002031660029004801561182b5780601f106118005761010080835404028352916020019161182b565b820191906000526020600020905b81548152906001019060200180831161180e57829003601f168201915b50505050508152602001600582018054600181600116156101000203166002900480601f0160208091040260200160405190810160405280929190818152602001828054600181600116156101000203166002900480156118cd5780601f106118a2576101008083540402835291602001916118cd565b820191906000526020600020905b8154815290600101906020018083116118b057829003601f168201915b505050505081526020016006820160009054906101000a900473ffffffffffffffffffffffffffffffffffffffff1673ffffffffffffffffffffffffffffffffffffffff1673ffffffffffffffffffffffffffffffffffffffff1681525050905060008160c0015190506040805190810160405280600981526020017f64656c69766572656400000000000000000000000000000000000000000000008152508260a0018190525081600260008581526020019081526020016000206000820151816000015560208201518160010190805190602001906119af929190611b51565b5060408201518160020190805190602001906119cc929190611b51565b5060608201518160030190805190602001906119e9929190611b51565b506080820151816004019080519060200190611a06929190611b51565b5060a0820151816005019080519060200190611a23929190611b51565b5060c08201518160060160006101000a81548173ffffffffffffffffffffffffffffffffffffffff021916908373ffffffffffffffffffffffffffffffffffffffff1602179055509050507fd06044fdf568f8a2b9ba8307385cff254fcc1ed152e196bce855aa583392713a6001548360a001518360405180848152602001806020018373ffffffffffffffffffffffffffffffffffffffff1673ffffffffffffffffffffffffffffffffffffffff168152602001828103825284818151815260200191508051906020019080838360005b83811015611b10578082015181840152602081019050611af5565b50505050905090810190601f168015611b3d5780820380516001836020036101000a031916815260200191505b5094505050505060405180910390a1505050565b828054600181600116156101000203166002900490600052602060002090601f016020900481019282601f10611b9257805160ff1916838001178555611bc0565b82800160010185558215611bc0579182015b82811115611bbf578251825591602001919060010190611ba4565b5b509050611bcd9190611c25565b5090565b60e060405190810160405280600081526020016060815260200160608152602001606081526020016060815260200160608152602001600073ffffffffffffffffffffffffffffffffffffffff1681525090565b611c4791905b80821115611c43576000816000905550600101611c2b565b5090565b9056fea165627a7a723058201b9a6e465e3315719a083d3e60e9f22037ec4366cc15d1a81f0b684cd0586f790029",
  "source": "pragma solidity ^0. 5.0;\r\n\r\ncontract DrugPackage {\r\n    string public name;\r\n    uint public orderCount = 0;\r\n    mapping(uint => Package) public orders;\r\n    \r\n    struct Package {\r\n        uint id;\r\n        string content;\r\n        string quantity;\r\n        string expiryDate;\r\n        string temperature;\r\n        string status;\r\n        address payable client;\r\n    }\r\n\r\n   event OrderCreated(\r\n        uint id,\r\n        string content,\r\n        string quantity,\r\n        string expiryDate,\r\n        string temperature,\r\n        string status,\r\n        address payable client\r\n   );\r\n\r\n    event OrderDeployed(\r\n        uint id,\r\n        string status,\r\n        address payable client\r\n   );\r\n\r\n   event OrderDelivered(\r\n        uint id,\r\n        string status,\r\n        address payable client\r\n   );\r\n\r\n    constructor() public {\r\n        name = \"Capsule Drug Package\";\r\n    }\r\n\r\n    function createOrder(string memory _content,string memory _quantity, string memory _expiryDate, string memory _temperature, string memory _status) public {\r\n        //Require valid content\r\n        require(bytes(_content).length > 0);\r\n        //Increment the order count\r\n        orderCount ++;\r\n        //Create the order\r\n        orders[orderCount] = Package(orderCount, _content,_quantity, _expiryDate, _temperature, _status, msg.sender);\r\n        //Trigger event\r\n        emit OrderCreated(orderCount, _content, _quantity, _expiryDate, _temperature, _status, msg.sender);\r\n    }\r\n\r\n    function deployOrder(uint _id) public {\r\n        //Make sure id is valid\r\n        require(_id > 0 && _id <= orderCount);\r\n        //Fetch the order\r\n        Package memory _order = orders[_id];\r\n        //Fetch the client\r\n        address payable _client = _order.client;\r\n        //Update the status\r\n        _order.status = 'deployed';\r\n        //Update the order\r\n        orders[_id] = _order;\r\n        //Trigger an event\r\n        emit OrderDeployed(orderCount, _order.status, _client);\r\n    }\r\n\r\n    function deliverOrder(uint _id) public {\r\n        //Make sure id is valid\r\n        require(_id > 0 && _id <= orderCount);\r\n        //Fetch the order\r\n        Package memory _order = orders[_id];\r\n        //Fetch the client\r\n        address payable _client = _order.client;\r\n        //Update the status\r\n        _order.status = 'delivered';\r\n        //Update the order\r\n        orders[_id] = _order;\r\n        //Trigger an event\r\n        emit OrderDelivered(orderCount, _order.status, _client);\r\n    }\r\n\r\n}\r\n",
  "sourcePath": "D:/final/src/contracts/DrugPackage.sol",
  "compiler": {
    "name": "solc",
    "version": "0.5.0+commit.1d4f565a.Emscripten.clang"
  },
  "schemaVersion": "3.0.2",
  "updatedAt": "2020-05-17T15:32:30.201Z",
  "devdoc": {
    "methods": {}
  },
  "userdoc": {
    "methods": {}
  }
}